:020000040000FA
:10000000006D0020992200009D7E000085220000E6
:1000100085220000852200008522000000000000EB
:10002000000000000000000000000000312400007B
:100030008522000000000000A123000085220000AE
:10004000C5260000C5260000C5260000C526000004
:10005000C5260000C5260000C5260000C5260000F4
:10006000C5260000C5260000C5260000C5260000E4
:10007000C5260000C5260000C5260000C5260000D4
:10008000C5260000C5260000C5260000C5260000C4
:10009000C5260000C5260000C5260000C5260000B4
:1000A000C5260000C5260000C5260000C5260000A4
:1000B000C5260000C5260000C5260000C526000094
:1000C000C5260000C5260000C5260000C526000084
:1000D000C5260000C5260000C5260000C526000074
:1000E000C5260000C5260000C5260000C526000064
:1000F000C5260000C5260000C5260000C526000054
:1001000053B94AB9002908BF00281CBF4FF0FF317E
:100110004FF0FF3000F00CB8ADF1080C6DE904CEE3
:1001200000F008F8DDF804E0DDE9022304B07047D0
:10013000704700BF2DE9F04786468C460846089E6A
:10014000154674461946002B40F0C2808542B2FA2B
:1001500082F245D94AB1C2F1200300FA02FC2EFA1C
:1001600003F3954043EA0C0C94404FEA154EA8B2B5
:10017000BCFBFEF8230C0EFB18CC08FB00F943EA8D
:100180000C43994528D9EB1808F1FF3704D299455B
:1001900002D9A8F102072B44A3EB0903A4B2B3FBD5
:1001A000FEFC0EFB1C330CFB00F044EA0344A042AF
:1001B00014D92C190CF1FF3304D2A04202D9ACF1AE
:1001C00002032C44241A43EA07401EB1D440002302
:1001D00034607360BDE8F0874746DDE76346F1E7CA
:1001E00092BB431B01214FEA154EAFB2B3FBFEFC9D
:1001F000200C0EFB1C330CFB07F840EA0343984528
:1002000062D9EB180CF1FF3004D2984502D9ACF159
:1002100002002B44A3EB0803A4B2B3FBFEFC0EFBCD
:100220001C330CFB07F744EA0344A7424ED92C19B0
:100230000CF1FF3304D2A74202D9ACF102032C44E3
:10024000E41B43EA0040C0E7C2F1200320FA03F1B7
:10025000954090402EFA03F303434FEA154EAFB298
:10026000B1FBFEFC0EFB1C10190C0CFB07F841EA5D
:100270000041884504FA02F422D969180CF1FF30D4
:1002800004D2884502D9ACF102002944A1EB08014F
:100290009BB2B1FBFEFC0EFB1C110CFB07F743EA03
:1002A00001439F420ED9EB180CF1FF3104D29F425B
:1002B00002D9ACF102012B44DB1B41EA004192E779
:1002C0006046E3E76146F7E76046A3E76346B7E7C2
:1002D000834206D916B9002108467BE7C6E900E04B
:1002E000F9E7B3FA83F78FB9834201D3724508D88F
:1002F000BEEB020460EB030301209C461EB9002103
:1003000068E73846FAE7C6E9004CF8E7C7F1200C81
:10031000BB4022FA0CF41C432EFA0CF120FA0CF329
:10032000B84001434FEA14490EFA07F5B3FBF9F858
:100330001FFA84FE09FB18300B0C08FB0EFA43EA87
:1003400000439A4502FA07F240D9E31808F1FF305A
:1003500004D29A4502D9A8F102002344A3EB0A0370
:1003600089B2B3FBF9F809FB183308FB0EFE41EA2A
:1003700003418E452CD9611808F1FF3304D28E4514
:1003800002D9A8F10203214443EA0040A0FB0298ED
:10039000A1EB0E014145CE46434602D306D14D4561
:1003A00004D2B9EB020E68EB04030138002EA6D08C
:1003B000B5EB0E0261EB030101FA0CFC22FA07F324
:1003C0004CEA0303F940C6E9003198E74046C5E727
:1003D0004346D9E710B52F4B2F4AC3F800262F48C4
:1003E000C3F8042686B0C3F808264921C3F80C26B2
:1003F000C3F81026C3F81426C3F81826C3F81C2621
:1004000007F09AFC07F014F803A800F057FD244BFE
:100410001B68834204D02348452107F08DFCFEE78A
:10042000059A2148492107F087FC03991F484B7D15
:100430000A7DC98A0091492107F07EFC1C484921A8
:1004400007F07AFC4FF44041002008F05BFA20B13D
:100450001848452107F070FCFEE702A99DF810003E
:10046000154C00F02FF8029A059B1344039A128949
:100470001344236003F07CFB01F068F801F03CF8C2
:1004800001F034FF20680D4B98470D48452107F0D7
:1004900053FCFEE7000001403546526E1A9C0000F6
:1004A000C4140020339C0000569C0000859C000072
:1004B000A39C0000C89C0000C00400200100002094
:1004C000FB9C000008B5024638B1054800234521D1
:1004D00007F032FC6FF0150008BD0860FCE700BFB4
:1004E0001E9D000021B1012906D06FF01500704754
:1004F000044B53F830007047024B03EBC0035868BD
:10050000704700BF489800002DE9F04FB5B0544E39
:10051000409F346803973F9F02970DF1300B3E9F39
:10052000CDF804B00097DDF804A180468946154651
:1005300000F0DCF820B13468204635B0BDE8F08F1B
:10054000BAF1000F04D020225946504607F014FD9E
:100550000023009349464FF6FF732A4606A806F08B
:1005600068FF81460028E6D1294640460B9F07F0E8
:100570005CF8B842DFD3DFF8F080DFF8F0A04FF08E
:10058000FF370DF1120304AA05A906A806F09FFF84
:100590000028D0DB5FD1059906A806F0E4FFBDF87E
:1005A000123040B92F494FF6FF7031F8022B8242CA
:1005B000C1D09342F9D1102B15D0222B2CD0012B76
:1005C000DFD1BDF81030202BB5D8059914AA2846E4
:1005D00007F0CDFB0028AED19DF8101014A800F054
:1005E00047F80746CDE7BDF81090B9F1200FA2D12A
:1005F00005994B4614AA284607F0B9FB00289AD162
:100600004A4614A9584606F0E8FFD8F8003083425D
:1006100091D14FF00109B4E7002F19DBDAF800306F
:100620009F4215DABDF81030802B84D8059914AAA2
:10063000284607F09CFB00287FF47DAFFFB2BDF891
:100640001030009714AA2021584600F097F804466D
:100650004FF0FF3795E7B9F1000F7FF46DAF6AE710
:1006600084000020EC9B0000C4140020509800007F
:100670002DE9F0452029A9B080460D4605D94FF057
:10068000FF34204629B0BDE8F085154B154E1B6898
:10069000154F019300244FF0010A019B9C42EEDAB2
:1006A00000F0F4FEC7F800A50BA805F0E3FD7368A1
:1006B00056F8081B1A680BA807F00CFA03A90BA838
:1006C00005F04AFE0023C7F800352A46C7F8003572
:1006D000414603A807F029FC0028D2D00134DCE70A
:1006E000509800005498000000A002502DE9F043FB
:1006F0009FB0DDE9286791469846269D0C4600F09C
:10070000C5FE1D4B0122C3F8002501A805F0B2FD6E
:1007100036B1002F04DD3A46314601A807F0DAF978
:1007200063892289E76813441F440024A7420AD83A
:10073000279901A805F010FE0F4B0020C3F8000513
:10074000C3F800050EE03E1BAE4228BF2E463346DE
:1007500042462146484607F00AFB30B1064B0022CC
:10076000C3F800251FB0BDE8F0833246414601A81A
:1007700007F0B0F93444D9E700A002502DE9F04762
:1007800096B017461E469DF878203A4BDFF8F48065
:1007900053F83210019103EBC20381465B68D8F82D
:1007A0000050186802AA0144302301A807F020F97C
:1007B000002858D1DDE901431C4403AA06AB2146B9
:1007C00001A807F03DF900284DD1049A072A4AD123
:1007D0002949059807F0A9FB002844D1079A082A5F
:1007E00041D12649089807F0A0FB00283BD102AA76
:1007F000214601A807F010F9A8BBDDE901A30AEB27
:10080000030294422FD1412B2DD13E44302303AA21
:10081000314602A8029707F0EBF8194DE0B9DDE97F
:10082000023213449E4217D3324602A906A806F0AC
:10083000A8FE88B9324602A90EA806F0A2FE58B951
:100840009AF80030042B07D1202306AA0AF10101EF
:10085000484600F033FE50B1D8F800302D68AB4266
:1008600018BFD8F80050284616B0BDE8F0872B68AE
:10087000F4E700BF549800004D9D0000449D000027
:10088000C414002084000020094A0B78400052F86C
:1008900020108B4209D0013052F82000834214BF4F
:1008A0004FF0FF304FF4407070474FF44070704786
:1008B0005C9800001FB5582303FB01006A46046AD8
:1008C000A16810231039204607F051FA034640B1C1
:1008D00022780748452107F02FFA0024204604B06B
:1008E00010BD04491022684607F01FFBF6E700BF61
:1008F000559D00000A9C000038B50E4B002918BF1A
:100900000B46436203F5006303650221044606F0CB
:10091000CCFE58B90521204606F0C7FE054638B979
:10092000206A07F063FAE065284638BD0125FBE739
:100930000925F9E7C40400202DE9F3471E46836822
:100940008B4205460C46174643D95B1A934240D367
:1009500086B36A4606F051FD00283CDB013FDDF816
:1009600000803C441D4FDFF878906A4621462846B7
:1009700006F043FD00282EDBDDE9004A28465246FA
:10098000214607F01EFA002825DBC7F80096C7F8B5
:100990000496C7F80896C7F80C96C7F81096C7F8DB
:1009A0001496C7F81896C7F81C966EB1444512D92C
:1009B000013CDAE7511E21446A4606F01EFD00287C
:1009C00009DBDDF80080CDE75444A04503D30134B2
:1009D000CBE74FF0FF3002B0BDE8F08700000140E8
:1009E0003546526E2C23594342180C4B41589942BC
:1009F00006D1D16813895B1802D25189C91801D375
:100A000000207047136A9B689942F9D2136940F637
:100A10000C621A420CBF0120002070473DB8F396CB
:100A20001FB52C2303FB02010023CDE90233019300
:100A30004FF4807300930A6A024BFFF765FD05B01F
:100A40005DF804FB7021002073B5002106460846BE
:100A5000FFF748FD06F120010546C0B201F04EF94E
:100A60000446C8B90121FFF73DFD06F14C010546DA
:100A7000C0B201F043F9044658B10123CDE9003476
:100A8000064800232A46452107F056F9304606F06D
:100A900081FE204602B070BD0023EFE7819D00007B
:100AA0002DE9F0412C2707FB01070446D7F82080E9
:100AB0000D46164606F04FFE10B93B69DB061BD506
:100AC000B5B14146204606F0AFFEF379042B0AD1BA
:100AD000216A204606F0A8FE024648B9144849217A
:100AE00007F02AF904E0002003F0EEF80428EFD024
:100AF000104B1868BDE8F08129462046FFF772FFC9
:100B000070B90D4B18680D4B1B688342F2D06DB164
:100B10000121404606F01AFE094A0A484521DFE74E
:100B20002A4631462046FFF77BFFECE7064AF4E70A
:100B3000D09D00008000002084000020C41400200C
:100B4000C69D00000F9E0000BE9D0000004870473B
:100B5000C818002073B50D46044600212846CDE98B
:100B6000001106F02DFE28B323681A4EB34203D1BC
:100B700001AA204606F05BFDE36AB34204D16A464F
:100B80000121204606F053FDDDE90032934288BF83
:100B90000193019BAB60019A2946204600F080FB3F
:100BA0000D4B1A68002A03DD0C48572107F0C4F8E2
:100BB00002B070BD01462046FFF77CFE05F108013A
:100BC000064606F015FDAB680193304607F0CEF8F7
:100BD000E1E700BF3DB8F39628190020379E0000DA
:100BE0002DE9F84FDFF878B01B4C1C4D8846914634
:100BF0009A4600260B9B9E4201D300200FE00B9BE0
:100C0000174A9F1BB7F5806F28BF4FF480673B469C
:100C100006EB0A01404607F0AAF810B10120BDE832
:100C2000F88F0A993B465A467118484607F0B4F8BF
:100C30000028F3D1C4F800563E44C4F80456C4F862
:100C40000856C4F80C56C4F81056C4F81456C4F824
:100C50001856C4F81C56CDE7000001403546526EC8
:100C6000C8140020F0B587B00E460446FFF7ECFE2E
:100C7000014620B18948452107F05EF8FEE720468D
:100C8000FFF73AFE054668B900221146204606F0F5
:100C900069FD054608B382480022572107F04CF849
:100CA000012393E07F484FF48072572107F044F806
:100CB00001239D4284F85830E6D194F858308DF8DD
:100CC0000F30042B00F28580012B00F2898000F0A8
:100CD0009C80FF2384F8583097E0204600F0ECF920
:100CE0000028DDD002A806F062FD0146204606F08D
:100CF000CFFD18B16C482A465721CFE702A806F06D
:100D00005FFD80F0010102AAC9B2204606F02AFD6B
:100D100002460028BFD102A806F052FD054660BB7E
:100D200002A92046FFF716FF9DF80F3084F85830CF
:100D3000033B012B06D8284600F0E2F810B1FF2350
:100D400084F858309DF80F30023B022B0BD800205E
:100D500000F0C0F838B1FF2384F8583053484521DB
:100D600006F0EAFFFEE794F85830FF2BF6D0002299
:100D70001146204606F0F6FC92E79DF80F70012F11
:100D800018D1104602F0A0FF831E022B05460ED894
:100D900002AA39462046FFF783FE454B1B6898425E
:100DA00005D0444B1D68A84214BF0525012584F8D1
:100DB000585082E7012102AA2046FFF771FE3C4B02
:100DC0001B6898420CBF9DF80F30052384F85830FB
:100DD00073E7052B7FF47DAF002000F091F811E060
:100DE00002A92046FFF7B6FE94F85830DA1E012A11
:100DF00014D8002000F084F800287FF46AAF0020A7
:100E000000F068F800287FF464AF94F85830FF2BA6
:100E100007D12648452106F08FFFFEE7022BF4D1CB
:100E2000EDE70022012B244D019210D011462046FF
:100E300006F098FC58B12D681022002102A807F096
:100E4000A6F8204606F0A6FC284607B0F0BD002212
:100E500011462046FFF724FE154F3B689842EAD121
:100E60002B689842E7D0134B1B689842E3D00021CF
:100E7000204606F08DFC0028DDD1019B0133019353
:100E8000019B012B00D0FEE7206A06F0B4FA307116
:100E9000236A5B6834603D68B360CDE7669E0000FE
:100EA000D99E0000979E0000059F00002F9F000024
:100EB000C4140020800000208400002010B50446E7
:100EC000002006F00DFC02482146FFF7CBFE10BDC6
:100ED000C818002013B5094B01A913F8300000F021
:100EE0000DFF48B9019807F0C6FD0446019806F0C9
:100EF0003DFF204602B010BD0124FAE764980000CF
:100F00001FB50F4B01A913F8300000F0F7FEA8B988
:100F1000019802A902F082FE044668B99DF80B30E0
:100F2000032B03D1019807F074FD0446019806F0E5
:100F30001DFF204604B010BD0124F7E70124F8E7A7
:100F4000649800002DE9F34106460C4617461D46FD
:100F50000BB9002121E0184606F032FC01460028BA
:100F6000F7D13046FFF7A6FC18B9012002B0BDE862
:100F7000F08101A906F03CFB0028F6D1019930462A
:100F800006F0B7FC736A59686B79012B18D1002CF5
:100F9000DFD12B68834298BF00212C2303FB04661A
:100FA0003A46306A202306F0E2FE0028DDD1002D0B
:100FB000DCD038680D4BC01A18BF4FF0FF30D5E7B2
:100FC000022BC6D12B68012B05D98342C1D8B4FAB4
:100FD00084F46409BDE7BCD1002CDED0012CB8D16B
:100FE0002C79023C18BF0124B3E700BF3DB8F3964B
:100FF0002DE9F04F074685B00C4601460020164605
:10100000FFF742FC051E51DB3846E46D06F0E7FAB7
:101010005FFA84F96B1E09FB03084FF0000A4FF0DA
:10102000010B4FF0FF349DB9BAF1010F03DD2148E8
:10103000452106F081FE631C06D0FF2C2ADC01341A
:1010400040F201133460B380284605B0BDE8F08F4C
:101050006B1E00930DF10F0201234146384606F046
:1010600086FE031E019323DB01220DF10F0138469A
:1010700007F06AFC019B40B15B4501D00AF1010A0F
:10108000009DA8EB09089B46CDE7B4F1FF3F08BFE0
:101090002C46F5E70223A4F580747371631004F005
:1010A00001040133013433603471CDE70725CBE708
:1010B0000125C9E73B9F0000F8B5866A456DAE4241
:1010C000044608D06B1CB34205D01848572106F0DF
:1010D00033FE0020F8BDB6F5807F19D9144857219A
:1010E000F5E7626A02EBC3025768226D02EBC302A6
:1010F0005268BA4202D00F485721E8E701339D42B7
:10110000EFD1204606F018FD28B90B485721DEE73D
:1011100000231F46F3E7AE4205D9636A03EBC5031C
:101120005B68BB42E7D10120D4E700BF5E9F0000AF
:10113000969F0000C59F0000F19F000010B588B089
:10114000044604A9006A02F069FD9DF81020012AF6
:1011500040D0254B2549032A08BF0B469DF8132094
:1011600002929DF8122001929DF8112020480092D1
:101170004921204A06F0E0FDE06C06A902F04EFD90
:101180009DF81820012A27D0174B1849032A08BFB9
:101190000B469DF81B2002929DF81A2001929DF8A3
:1011A000192000921248144A492106F0C5FD9DF805
:1011B0001030012B12D19DF81230032B0ED19DF867
:1011C0001830012B0AD00D48492106F0B5FD022048
:1011D00008B010BD0A4BC1E7094BDAE709484921BD
:1011E00006F0AAFD0020F3E72AA0000033A00000CB
:1011F00047A0000039A0000088A0000098A00000CF
:101200002EA00000B7A0000070B54B6814461E4A1F
:1012100003F0FF23934286B006460D462FD10B689C
:10122000012B2CD104A9204602F0F8FC9DF81020D7
:10123000012A26D0154B1649032A08BF0B469DF8F4
:10124000132002929DF8122001929DF81120009225
:101250001048114A492106F06FFD9DF81030032B0C
:101260000DD12146304606F0DFFA204607F0D1FBCB
:10127000A968204606F0CAF9204602F0AFFC06B085
:1012800070BD064BDBE700BF000100042AA0000090
:1012900033A0000047A0000088A000002EA000009E
:1012A0002DE9F04F164687B005460C466E48492199
:1012B00006F042FD3146284606F01BFB6B6A82466B
:1012C00020465E6806F07CFAE8B1E86D06F013FA95
:1012D000AF6A0023013F3344984201D9013FFAE746
:1012E000BA4510D36148572106F026FD07FB06F3E7
:1012F0005F480AFB0662572106F01EFD0123E371D9
:1013000007B0BDE8F08FEB6C03931A4621462846E0
:101310002F6AFFF779FF6379012B4AD1DFF854B1C7
:10132000D04641E02268C2F101035344984539D8C0
:101330006B6A196853F8380003EBC803012A53F8A5
:10134000083CA3EB0103A0EB010904930FD1E36870
:10135000022B08D03946284606F066FA224639465E
:10136000284606F076FA0399284606F05DFA00232F
:10137000324649463846FFF7DFFA049B3A4639467B
:10138000CDE900962846FFF72BFC2146284606F0BB
:1013900024FA23680133236020B1DBF800300133E5
:1013A000CBF8003008F1FF38B8F1000FBAD10123B3
:1013B0002360022363714FF00108C245A0D3236864
:1013C00098454ED36A6A4FEAC803083B52F8381072
:1013D000D2F800B00491D1582A6DD0581368A0EB10
:1013E00003092379012B3AD1A1EB0B0100233246EB
:1013F00038460591FFF7A0FA059900914B460399ED
:1014000001963A462846FFF7EBFB2146284606F0B0
:10141000E4F90223237118B1164A136801331360EB
:101420000023324649460398FFF786FA049B039A45
:10143000A3EB0B033946CDE900962846FFF7D0FB16
:101440002146284606F0C9F92368013323600123A9
:10145000237130B1074A13680133136001E0022B96
:10146000DED008F10108A8E7CEA00000F7A0000038
:1014700026A10000281900200A4619B1024B0021BC
:101480001B681847704700BF8800002070B5094DE1
:101490002B780BB1002070BD074C0126C4F8006505
:1014A00004F08AFF18B92E70C4F80005F2E74FF077
:1014B000FF30F0E77022002000A002502DE9F0413B
:1014C000DFF83080ACB01F4606460C461546FFF7E5
:1014D000DDFF0123C8F800352A4633460097214630
:1014E00003A807F0CAFF0023C8F800352CB0BDE8F8
:1014F000F08100BF00A00250BFF36F8F72B6124B95
:101500004FF0FF32C3F88020C3F88420C3F888204E
:10151000C3F88C20C3F89020C3F89420C3F8982017
:10152000C3F89C20C3F88021C3F88421C3F8882124
:10153000C3F88C21C3F89021C3F89421C3F89821F3
:10154000C3F89C21704700BF00E100E03E4A2DE94E
:10155000F0434FF0FF3301215160C2F84833C2F825
:10156000083302F5C042394E5160C2F84833C2F820
:10157000083302F59832364FDFF8DC80516085B0D1
:10158000C2F848330025C2F8083356F8044B4FF030
:10159000FF3944F30730C4F8089300F069FF0123D2
:1015A00063600023C4F84C31D4F84C21C4F81031E6
:1015B000D4F81021C4F84431D4F84421C4F80035DB
:1015C000D4F80C250092D4F814250192D4F80825FB
:1015D0000292D4F810250392C4F80C956846C4F81A
:1015E0001495C4F80895C4F8109550F8042B511CB4
:1015F0000FD002F01F0152091DD0012A1ED1424610
:1016000002EB8102D2F80017394041F00201C2F822
:1016100000170133042BE8D15DB10E4A4FF0FF33C0
:10162000C2F808354FF08042C2F8083305B0BDE873
:10163000F0830125A9E74FF0A042E1E701F5E07151
:10164000002353F82130FFDE00B000407098000006
:10165000F0F8FCFF00F0014000030050014B1B6854
:10166000184700BF8C000020014B1860704700BF76
:101670008C00002007B50B4600210246009103486C
:1016800000F006F803B05DF804FB00BF5D16000033
:101690002DE9F04F8DB01D46531E824601910393F4
:1016A0004FF00009039B5878252803F1010419D154
:1016B0001E4600204FF0FF38023603460290444693
:1016C00031780396392954D81F2914D8002900F0FD
:1016D000EE8101992520D04701993078D04709F152
:1016E0000209DFE7002800F0E2810199D04709F103
:1016F00001090394D6E7A1F12002192AE9D801A72C
:1017000057F822F06D170000D3160000D316000022
:101710006D170000D3160000ED170000D31600006F
:10172000D3160000D3160000D316000039180000AD
:101730006D170000D31600004D180000F9170000C7
:10174000D316000007180000271800002718000013
:10175000271800002718000027180000271800008D
:101760002718000027180000271800000846013637
:10177000A6E7582900F0EB80A1F16302D7B2172F3A
:10178000A7D8172AA5D801A757F822F0F519000005
:1017900073180000D3160000D3160000D316000003
:1017A0005318000073180000D3160000D316000071
:1017B00053180000D3160000D3160000D316000003
:1017C00029190000D3160000D3160000C919000023
:1017D000D316000073180000D3160000D3160000C3
:1017E00029190000D3160000531800000199252084
:1017F000D04709F1010955E7029A02F0FE02029270
:101800004FF00008B3E7002C0DDAB8F1000F0DDA45
:10181000029A002A00F0438124EAE4740A2202FBBF
:101820000414303CA3E7B8F1000FF5DB0A2202FBF9
:101830000812A2F130089AE7B8F1000F55F8042B0E
:1018400080F22F81002A80F22E81544202220292DD
:101850008DE7682903D1682B06D1482387E76C29D7
:1018600002D16C2B00F02181002B7FF432AF0B46AC
:101870007DE77A2B06D1752955F8046B14D14FF00A
:10188000000B0CE06C2BF6D04C2BF4D1073525F077
:1018900007037529D3E9006B03F1080506D1202859
:1018A0003BD1854F013C09E04FEAE67BBBF1000FDD
:1018B000F5DA7642814F6BEB4B0B013C0DF12D03BA
:1018C000059300230493304659460A220023FEF76D
:1018D00017FC059B303203F8012DB4460593049B99
:1018E0005A46BCF10A0F8B4672F1000203F1FF3138
:1018F00006460491E7D2C3F1010B30330DEB03062A
:10190000B8F1000FA6F104066DDA029BD9077DD469
:10191000A8EB0B03A4EB0B0413E02B280ABF684FC2
:10192000684F04F1FF34C9E770290FD155F8042B33
:101930000023FAB9634F644E053C6FF004034FF087
:10194000050B029A920770D4A04666E078216C2BB2
:1019500003D155F8042B002308E04C2BF9D10735AF
:1019600025F007031D465B6855F8082B232825D171
:10197000880621D5554F023C01F06001A1F1390BD9
:101980000DF12D0E002602F00F01092988BF5944E0
:1019900030310EF8011D102A4FEA121141EA03718D
:1019A0004FEA131C73F1000306F1FF3008D2C6F1B1
:1019B000010B06F13003A1E7454FDCE7414FDBE7C0
:1019C00006460A466346DEE755F8046B304606F0E5
:1019D000A5FAB8F1000F834602DB4045A8BFC34615
:1019E000384F4FF00008A8EB0B03002B92DDA4EB5F
:1019F0000804A6E755F8043B8DF81830314F013C38
:101A00004FF0FF334FF0010B06AE9AE7A046EAE72E
:101A1000029301992020D047029BB8F10108F7D525
:101A200024EAE472013C9144A41AB84606E0049307
:101A300002920199D047029A049B9046424612F8BE
:101A4000010B0028F3D11A46013A15D5002BACBF83
:101A5000C7EB03077F425B46013B15D5BBF1000F87
:101A6000A8BF5F444F442646013E14D5002CA8BFB2
:101A70003F1907EB080915E60493029201993020FB
:101A8000D047049B029ADFE70293019916F8010BF5
:101A9000D047029BE0E701992020D047E4E70122EC
:101AA000D5E6904663E6144661E64C235FE6484679
:101AB0000DB0BDE8F08F00BFB4A10000B2A10000DE
:101AC000B6A10000809D0000BEA10000B8A10000EA
:101AD000BBA100002DE9F047058B0446280790467E
:101AE00011D4022905F0070540F0CC80204606F00D
:101AF0004AF878B10138218B042811D8DFE800F0CA
:101B0000C2106D85950001290CBF45F0100545F008
:101B10002005258388F31188BFF36F8FBDE8F08718
:101B200001F0070AAA4500F0A5800027B9463E4605
:101B3000A368002B00F0BC8041F00801218388F3EA
:101B40001188BFF36F8FA168002900F0BA800D687B
:101B5000002900F0B680D1F8048033465246204672
:101B6000C047002D76D02B6829461D46F0E701F0CE
:101B700007035A1F012A1BD8002221F00701062B58
:101B8000276889B2C4E9002209D13B4603E0628B91
:101B9000013262831B68002BF9D141F002012183DD
:101BA000204605F0F0FF00287AD041F0200176E0D1
:101BB000042B0AD121F0070189B22183204605F0C8
:101BC000E2FF10B141F020012183218B01F0070ACF
:101BD000AA454FD00027B946AAE7236921F007019B
:101BE00041F00601062DD3F8009021832DD1B9F1E3
:101BF000000F3FD041F00801218388F31188BFF323
:101C00006F8F3A492046C84729E021F00701236930
:101C100041F0040189B2042DD3F804902183E6D069
:101C200000273E464FF0040A82E721F007012369AE
:101C300041F0050189B2052DD3F808902183D6D053
:101C400000273E464FF0050A72E700273E464FF058
:101C5000060A6DE72B4687E7B9F1000FD1D1EFF304
:101C60001188202383F31288BFF36F8F238B23F017
:101C700008032383258BEA062ED525F01003238342
:101C800005F007056669218B002EBFF670AF0023B3
:101C90002768C4E9003321F0070141F001012183E5
:101CA000218B01F0070AAA454FF000097FF440AFED
:101CB000002F9CD041F00801218388F31188BFF3E5
:101CC0006F8F002FC8D03D683946334652462046B4
:101CD00005F085FF2F46F4E7AB067FF51BAF25F037
:101CE0002003238305F0070500E700BF0B7C0000FD
:101CF000014B0360002070477898000070B5104BCE
:101D00001C680D46B4B10F4B196800238B4202DBEF
:101D10006FF0010070BD224612F8106B864202D0AF
:101D200001331446F2E7E06807F037FA28B12C6077
:101D30000020EFE76FF00C00ECE76FF01200E9E72E
:101D4000900000207898000010B588B04368029396
:101D50008368C068CDE903320A680023CDE9062311
:101D60000C4601AA0449059306F0CDF9079808B975
:101D7000059B236008B010BD097E000008B505482A
:101D800005F0EAFE044805F0E7FE044805F0E4FE2D
:101D9000002008BDC4A10000F5A1000028A2000099
:101DA000014803F083BF00BFEC98000038B504463B
:101DB00018B90F4B0F485B6898476168B1F5683FE9
:101DC00010D0B1F5680F0DD00B4DA9420AD011F417
:101DD0006861206807D00146084807F01CFA002314
:101DE0002360656038BD142206F0D1F8F9E700BF22
:101DF0008401002056A200002C5F5CA92C1E00204C
:101E000008B520B34368B3F5683F10D101220368D9
:101E1000BFF35B8F53E8001F002903D143E8002084
:101E20000028F7D1BFF35B8F0DD1002008BD094A10
:101E300093420AD000684FF0FF324FF0FF3303F0B7
:101E4000AFF80028F1D00448F0E70448EEE76FF45B
:101E5000E040EBE72C5F5CA9E98FFFFFEA8FFFFF13
:101E600008B5D8B14368B3F5683F10D100220368C4
:101E7000BFF35B8F53E8001F012903D143E8002023
:101E80000028F7D1BFF35B8F0BD1002008BD074AB4
:101E9000934208D0006803F0FBF8F6E76FF4E040E7
:101EA000F4E70348F2E70348F0E700BF2C5F5CA9C2
:101EB000E98FFFFFEA8FFFFF10B5044618B91D4BED
:101EC0001D485B6898476368B3F5683F2FD0B3F54A
:101ED000680F2CD0194A934219D1236803BB1848C4
:101EE0004FF0FF324FF0FF33214603F02BF808B9D3
:101EF00023681BB90F4B13485B689847206814226E
:101F0000002106F044F84FF46863636008E0B3F51D
:101F1000683F0DD83A2B03D040F6BA629342DED127
:101F2000206807F0C2F9636843F03A03636010BDAC
:101F3000054AF3E78401002056A200002C5F5CA94B
:101F40002C1E00207CA200003A00003A08B5064989
:101F500006484023142207F050F9BDE80840044920
:101F6000044803F015BF00BF2C1900202C1E0020D0
:101F7000F49800000899000008B50348034A0021BE
:101F8000121A05F07DFF08BD4002002078220020D3
:101F90000748084A084908B5121A05F073FF0748B0
:101FA000074A0849BDE80840121A05F06BBF00BF98
:101FB0008000002040020020A8A4000000000020B3
:101FC0008000002028A4000030BFFFF7FDBF00BF45
:101FD000054B9A699B689A421FBF044A536843F0B5
:101FE00080535360704700BF681F002000ED00E081
:101FF00070B5264B15469A6A12F0100F9A6A14BFF4
:102000001124102412F0080F9A6A18BF12249207A4
:1020100006460AD5586B9A6A140634D519B19A6ADD
:1020200022F080029A62132401E06FF01500174B32
:102030009A6A12F0010F9A6A18BF142412F0200F46
:102040009A6A18BF1524D20602D49B6A9B070AD548
:102050000E4B5B68190506D5314600F0C1FA10B188
:1020600080F309880224094B9A6A920642BF5A6A91
:1020700022F400525A629A6A42F0FF029A620023E6
:102080002B70204670BD6FF01500CCE700ED00E02E
:10209000134B9A6A12F0007F9A6A14BF1E201D200B
:1020A00012F0807F9A6A18BF1F2012F4002F9A6ADC
:1020B00018BF212012F4802F9A6A18BF222012F430
:1020C000003F9A6A18BF232012F4803F9A6A6FEA91
:1020D00002426FEA12429A6218BF2420704700BF82
:1020E00000ED00E010B5194B0246986A9C6A10F4A6
:1020F000805F14BF1720162014F4006F9C6A18BF6D
:102100001820A40509D5986B986A000404D51AB163
:102110009A6A22F400429A6219200C4B9A6A12F4CD
:10212000806F9A6A18BF1A20D2050CD49B6A13F4E8
:10213000005F18BF1C20054A936A43F47F439362F3
:1021400000230B7010BD1B20F5E700BF00ED00E081
:1021500070B5454B5B689CB00546C3F30803002689
:1021600086F31188BFF36F8F02F07F40B0F17F4F8D
:1021700011D102F00C0008280DD010074CBF0D46FD
:1021800001260022033B8DF80720032B05D8DFE84A
:1021900003F01E5D615A3546F3E700249DF80730D1
:1021A0009BB96822294602A805F0E6FE099B002E8D
:1021B00054D0C3F3080222B96FEA53236FEA4323D2
:1021C000099302A9204605F05FFE1CB070BD264BA6
:1021D000DA6A9107E1D4DA6A002ADEDBDA6A5200B1
:1021E000DBD55A69A96942F480725A61BFF34F8FF7
:1021F000BFF36F8F5A6931F8021C22F480725A6162
:10220000BFF34F8FBFF36F8F4DF6027291420AD02A
:102210009A6AD2B24AB10DF1070201212846FFF7AE
:10222000E7FE0446BAE72C68B8E79A6A12F47F4FD3
:1022300005D00DF107010120FFF754FFF1E79B6A7C
:10224000B3F5803FA9D3FFF723FFEAE70DF10702BB
:102250000021E3E70DF107010020EDE723F4FF7310
:1022600023F00103ACE700BF00ED00E0044B5A6926
:1022700042F010025A615A6922F008025A6170470E
:1022800000ED00E0EFF30880EFF3098101B572463D
:10229000FFF75EFF01BD00BF002080F31488BFF38D
:1022A0006F8F0F4880F3088801F0A8FD00200D49CA
:1022B0000860BFF34F8F00F02BF8202080F31188C7
:1022C00009484FF40861401880F30988EFF314803F
:1022D0000221084380F31488BFF36F8F00F010F9D8
:1022E000006D002094ED00E0802200200749D1F825
:1022F00090200023C2F307221846934200DB704768
:10230000C1F89830C1F8A0000133F6E700ED00E015
:1023100008B572B6002383F31388FFF7E7FF144B69
:102320004FF0FF32C3F88020C3F88420C3F8882020
:10233000C3F88C20C3F89020C3F89420C3F89820E9
:10234000C3F89C20C3F88021C3F88421C3F88821F6
:10235000C3F88C21C3F89021C3F89421C3F89821C5
:10236000C3F89C2162B6BFF34F8FBFF36F8F08BDD8
:1023700000E100E0084B9B6883420BD1EFF305833B
:1023800043B1064B5A6842F080525A605A6A22F4AE
:1023900000425A6203F0EEB9681F002000ED00E031
:1023A00021498A6882F8BDE04FF030001044EFF315
:1023B000098C80E8F01F1EF0100F03D102F17C00A1
:1023C00080EC108A202080F31288BFF36F8F174FA4
:1023D0004FF000668A698A603E6092F9BDE0506FF6
:1023E0000023536780F311881EF0100F03D00023E1
:1023F000E1EE103A03E002F17C0090EC108AEFF37A
:10240000148323F0040383F31488BFF36F8F04B5A0
:10241000104600F075F9BDE8044002F1300090E884
:10242000F01F8CF309887047681F002004ED00E05E
:102430001EF0040F0CBFEFF30880EFF309808169F1
:1024400011F8021C0229FFD001B5724605F022FDE9
:1024500001BD00BF40B2002807DB044A4109012347
:1024600000F01F00834042F82130704700E100E097
:1024700040B200280CDB4309064900F01F0020335E
:102480000122824041F82320BFF34F8FBFF36F8FAB
:10249000704700BF00E100E0054B420900F01F005B
:1024A00053F82220012303FA00F01040704700BFC8
:1024B00000E100E040B20028A8BF00F1604001F157
:1024C0000101B8BF064B4FEA4111ACBF00F56140B6
:1024D00000F00F00C9B2B4BF195480F80013704760
:1024E00014ED00E0044B054A23F07F039360BFF333
:1024F0004F8FBFF36F8F70470000000000ED00E0CA
:1025000008B5FFF7EFFF104BD3F8882022F47002D4
:10251000C3F88820D3F8882042F4A002C3F88820AA
:102520004FF04042C3F83422BFF34F8FBFF36F8F99
:102530000023E1EE103AFFF71FFDFFF729FD00F041
:10254000B5F802F087FC00BF00ED00E04FF47D41DC
:10255000C0F8BC1042F8203C009B42F81C3C0A49E1
:10256000019B42F8183C029B42F8143C21F0010107
:102570004FF0807342F8043C42F8081C0023203AD4
:1025800002654367704700BF737B0000037B13F055
:10259000020F124B03D190F8BD20D20611D45A6B12
:1025A00042F080425A63D0F8BC3019075CBF43F058
:1025B0000803C0F8BC30037B43F0020303738020A0
:1025C00070475A6B22F080425A63D0F8BC301A0729
:1025D00044BF23F00803C0F8BC30F0E700EF00E090
:1025E000094A0346906870B113F1160F406E05D08A
:1025F000A0F180029A4205D8834203D2814228BFCB
:102600000020704700207047681F0020104B9B6817
:1026100083421AD1EFF30580B8B9EFF3118120227C
:1026200082F31288BFF36F8F1A7B22F002021A73B3
:10263000EFF3148323F0040383F31488BFF36F8F45
:1026400081F31188BFF36F8F70476FF015007047EB
:10265000681F002008B515460E460022E1EE102A3C
:10266000EFF3148222F0040282F31488BFF36F8F19
:10267000BFF36F8F094A906000F042F82C4686F352
:1026800009880020034B98472046002100220023A0
:10269000014C2047B77E0000737B0000681F0020BC
:1026A000014B10221A61704700ED00E0044800233E
:1026B0002021C2180133302B82F80013F9D1704762
:1026C00000E100E008B5EFF30583064A103B02EB9A
:1026D000C30152F8330049688847BDE80840FFF756
:1026E00077BC00BFF4950000024B034A0348012168
:1026F00000F07CB8000004200000002018990000C1
:1027000010B50446FFF742FF626E03460548D21A31
:10271000C0E90023044B8360BDE81040012100F0B4
:102720006FB800BF481E002000000B15084AC2F811
:1027300098000B6823F01F03034343F01003C2F813
:102740009C308B6843F00103C2F8A030704700BF93
:1027500000ED00E02DE9F043DFF8608085B00E4623
:102760001F4604464FF00009B14523DA6068D8B12E
:102770003FB1411E08421BD17F2819D92368194255
:1027800016D12368019305F0B9FBA36803430393B3
:10279000D8F89050C5F30725D0B2013DA84207D81C
:1027A00001A9FFF7C3FF421C09F101090C34DBE763
:1027B0006FF01502104605B0BDE8F08300ED00E0B3
:1027C000044B0522C3F89420BFF34F8FBFF36F8FE4
:1027D000704700BF00ED00E0BFF35F8F024B0022A7
:1027E000C3F89420704700BF00ED00E010B5034C23
:1027F00001232278FFF7AEFF207010BD7122002068
:1028000008B50B4A00231278FFF7A4FF10F1160F4A
:1028100007D0084A0021D2F89030C3F3072398422A
:1028200000DB08BDC2F89800C2F8A0100130F2E742
:102830007122002000ED00E02DE9F0435B4B5C4C81
:10284000D3F890302568C3F307239D4285B000F28A
:10285000A980FFF7C1FF00200C2685421BD1554CF3
:10286000554F25706846FFF743FADFF84081DFF8DF
:102870004C9106460025AE4214D123784B490020E6
:10288000D1F89020C2F307229342C0F28580FFF76F
:1028900097FF002045E0616806FB0011FFF746FF47
:1028A0000130DAE7009800EB05114FEA051CCB6810
:1028B0003B40B3F5000F4DD00AD8B3F5001F33D01D
:1028C000B3F5800F3BD0B3F5801F13D00135D2E7AD
:1028D000B3F1007F47D0B3F1805F4DD0B3F1807F7B
:1028E000F4D150F80C3088684A6805F007FB40F0D6
:1028F000887009E050F80C3088684A6805F0FEFAE4
:1029000040F0885040F43020CDE901230390D8F8FE
:1029100090302078C3F30723013B984235D96FF0FC
:10292000150005B0BDE8F08350F80C3088684A689F
:1029300005F0E4FA40F0885040F40020E4E750F855
:102940000C3088684A6805F0D9FA40F0007040F40D
:102950000030D9E750F80C3088684A6805F0CEFAA4
:1029600040F08270D0E750F80C3088684A6805F073
:10297000C5FA40F48020C7E750F80C3088684A68F0
:1029800005F0BCFA40EA0900BEE701A9FFF7CEFE58
:1029900023780133237099E7C1F89830C1F8A0007B
:1029A00001336DE74FF0FF30BBE700BF00ED00E003
:1029B00024990000712200200000F0FF00000211A5
:1029C000014B1860704700BFB40000200E4A01237D
:1029D000C2F840354FF080424FF08051C2F8783550
:1029E000D1F83001082808D1D1F83411052904D8CC
:1029F0000648415C09B1C2F838364FF080430122E5
:102A0000C3F880250020704700E00140B8A2000014
:102A100048B1054B054A1B68B3FBF2F35843044B1E
:102A200043F00103184770477001002040420F0037
:102A30004098000008B50448044A3F23C0E9002339
:102A400001F0C8FA002008BD541E0020FFFF0F004F
:102A5000084B70B5C31A0D4607499B1004465943ED
:102A60000648402205F0A8FA2B4601462046BDE85C
:102A700070401847701E0020B76DDBB64C95000003
:102A800073B50C4C0C4A4023041B00930D460B46B7
:102A90000A49A41061430646094805F0B8FA011E28
:102AA00005DA30462B4602B0BDE87040184702B048
:102AB00070BD00BF701E002077800000B76DDBB6D0
:102AC0004C9500000022F8B5012105461046FFF79D
:102AD000F1FC104801F0A6FA0446B8B901F0C2FAB8
:102AE0002F690D49384605F09EF8031E09DB0126C3
:102AF0003E642D69084905F11C0005F094F8031E99
:102B000002DA1C462046F8BDEE64FBE76FF00404D1
:102B1000F8E700BF4D2C0000449900001FB50022CB
:102B20000123CDE90223094ACDF800D06B46CDF848
:102B300004D005F099FA002805DB4FF48042002309
:102B4000684602F029FB05B05DF804FB8B800000AD
:102B500010B5EFF31184202383F31288BFF36F8F36
:102B6000074A136823F00201DB07116002D4012039
:102B700005F0E7FF84F31188BFF36F8F10BD00BF2E
:102B8000C01E002030B4104B0C2202FB0033014663
:102B90000020D3E90E529863EFF31180202484F3D0
:102BA0001288BFF36F8F1C6C04F0C00444F0020461
:102BB0001C6480F31188BFF36F8F1DB12B4603484F
:102BC00030BC184730BC7047701E00204C95000088
:102BD00010B4EFF31182202383F31288BFF36F8FB9
:102BE0001848016841F002040460C80708D482F361
:102BF0001188BFF36F8F01205DF8044B05F099BF7A
:102C00004FF08041D1F80C04D1F80C14C907EED56F
:102C1000EFF3118083F31288BFF36F8F0A490B6CB7
:102C200003F0C00343F002030B6480F31188BFF389
:102C30006F8F82F31188BFF36F8F00205DF8044B14
:102C4000FFF7A0BFC01E0020701E002010B1012899
:102C500004D07047034B1B6C5B0701D1FFF792BF99
:102C6000704700BF701E00202DE9F0413849BFF3C6
:102C70005B8F0746012251E8003F41E80020002811
:102C8000F9D1BFF35B8F33B9324933484B60CB6026
:102C90008A6004F0DBFF7B1E012B2BD8012F07D1AC
:102CA0004FF08043D3F81C3403F00303012B21D0F1
:102CB00006F00EFB0546F8B9284B1B78E3B14FF040
:102CC00080430222C3F808230646DFF894804FF0C1
:102CD0008044D4F81824D4F81834D20315D503F05E
:102CE0000303012B01D0012F0FD155B386F31188B7
:102CF000BFF36F8FBDE8F081EFF31186202383F3DC
:102D00001288BFF36F8F0125DFE7ADB1304605F0C4
:102D1000E6F8D4F81835002BDBD1D4F80421002ACA
:102D2000D7D0C4F80431D4F804310123C4F81835DD
:102D3000C8F88031A360CCE70021212006F038FBE1
:102D4000E7E74FF080430222C3F80423D2E700BF35
:102D50006C1E00205C1E00208C1E002075220020AE
:102D600000E100E008B5074806F017FA38B1064858
:102D7000FFF726FE0448FEF777FC002008BD6FF041
:102D80001200FBE7A09500008D2D00000A2838B541
:102D9000074D044604D1AB680D215B68284698476F
:102DA000AB6803485B68E1B29847204638BD00BF76
:102DB000A0950000024B0B6001231360704700BF19
:102DC000D499000000487047689900000268154BCC
:102DD000FF2A08BF4FF0FF32C3F824254268FF2ABC
:102DE00008BF4FF0FF32C3F828258268FF2A08BFCA
:102DF0004FF0FF32C3F83025C268FF2A08BF4FF0FA
:102E0000FF32C3F834250269FF2A08BF4FF0FF32B2
:102E1000C3F838254269FF2A08BF4FF0FF32C3F8D4
:102E20003C257047009002402DE9F04743685D6BF8
:102E300090B007460AAA0021284605F039FC041E76
:102E40006BDB0A9B2A681979186800F039FB041EAD
:102E500063DB002201212920FFF72CFBD7F8048037
:102E60003A695349404601F007FE041E50DB514DBC
:102E70000FCD0AAC0FC495E8030000230DF104093F
:102E8000019384E80300C9E90133AB238DF80430D2
:102E9000494BD3F82425D2B20492D3F82825D2B2D4
:102EA0000592D3F83025D2B20692D3F83425D2B2A7
:102EB0000792D3F83825D2B20892D3F83C350AA845
:102EC000DBB20993FFF782FF012001F045FE04AD5C
:102ED00006462846FFF77AFF1EBB3146484605F0F6
:102EE0004BF9041E14DB232006F03BF94FF0030AD4
:102EF0009F2331460AA8CDE90A66CDF81090CDF897
:102F000014A08DF828300C9505F036F9041E0BDA64
:102F100001F03EFE08B101F02BFE204610B0BDE8E6
:102F2000F0876FF00404F3E75246494608F1300099
:102F300004F0FBFF0446002834D17A68537F023B3B
:102F4000012B2DD9167F023E022E8CBF00260126B2
:102F500005F03FF9002828DBC2B2C0F3801086429A
:102F6000D6D00023012182F040020AA8ADF800303B
:102F70000A938DF80020CDF810D005910C938DF8B0
:102F800028100B9505F0F8F804460028C0D105F08C
:102F900020F9041E01DBE307F9D404EAE474B7E77F
:102FA0000126D5E76FF01204B2E70446B0E700BF90
:102FB0006D8100000098000000900240024B0B6001
:102FC00001231360704700BFC41E002000487047F3
:102FD000DC99000010B5012211460648064C06F0A7
:102FE0006BF906F0B0F8206006F0A9F860600020E8
:102FF00010BD00BFCC1E0020C41E00204FF0804238
:10300000D2F81015D2F8103501F01E0123F01F037D
:103010000B4343F00103C2F81035024B00221A7033
:10302000704700BF722200204FF08053D3F8303138
:10303000082B20D14FF08042D2F81015CB071AD5BB
:10304000D2F8103501F01E0123F01F030B43C2F824
:103050001035D2F808315BB1D2F8103523F01F03D8
:103060000B4343F00103C2F810356FF08B0070473B
:10307000024B01221A700020704700BF722200200C
:103080002DE9F0410D46164606F059F8314607463F
:10309000284605F091FA78B3B5FBF7F307FB135315
:1030A00053BBB6FBF7F407FB14642CBBB7421DD827
:1030B0004FF0FF324FF0FF331148DFF8488002F045
:1030C0006BF806F03CF80746FFF7AEFF044680B900
:1030D000284601F079FA98F800300BB1FFF78EFF1F
:1030E000F61B3D44F0D1064802F022F82046BDE828
:1030F000F0816FF08B04F6E76FF01504F6E700BF80
:10310000CC1E0020722200202DE9F8430E463046E6
:10311000194617461C4605F04FFA88B346EA0405DF
:1031200015F003052CD1BCB11748DFF864904FF0BF
:10313000FF324FF0FF3302F02FF824F00304AC42CB
:1031400006EB05080BD1114AD2F80034DB07FBD59A
:1031500000240D4801F0ECFF2046BDE8F883FFF79E
:1031600063FF50B97959404601F04AFA99F80030A6
:103170000BB1FFF743FF0435E1E76FF08B04E8E79D
:103180006FF01504E8E700BFCC1E002000E001400E
:1031900072220020F0B544681646A068227C01F037
:1031A0001F0587B045EA421500286DD0B6F5001F0F
:1031B00004D1294605F0BBFF002056E06268607C20
:1031C000C2F8240501AA0020B6F5800F01905060D6
:1031D00037D1B3F1007F14BF052304238DF80430E9
:1031E0000023CDE904230393E36823FA01F111F0EE
:1031F00001010DF103073AD1B6F1A07F37D105F0F7
:103200001F036A0903F5E07326D0012A3FD1214A42
:1032100052F82330DB072AD4A0683A46294605F045
:10322000FCFE16301BD00297A06803AA294605F0C1
:10323000C0FD002819DBA0680122294605F024FF03
:10324000BAE7B3F1C06F05D0B3F1007F14BF01231B
:103250000223C3E70323C1E74FF0A042D8E7A068E9
:10326000394601F0B1F80028DDDA07B0F0BDA068FA
:103270003A46294605F0D1FE0028D5D19DF8031025
:10328000A06801F09BF8CFE76FF08500EDE751F8FB
:103290002330FFDE00030050420970B5034602D020
:1032A000012A17D070BD0D4E326951680029F9D03E
:1032B00003F01F0301250C689D400029F2D08A68A5
:1032C0002A4002D04B68304698472CB123682146EB
:1032D0001C46F2E7024EE7E72346F8E78495000034
:1032E0006895000038B54568A86890B105F0C4FE3F
:1032F000014670B9A86805F0A3FE044658B9024615
:103300000649A86805F086FE224605210620FFF73B
:10331000D1F8002038BD6FF00400FBE799320000BF
:103320002DE9F043476840F20636D0063B7C87B073
:1033300002EA060654BFC2F3401C4FF0030C01F032
:103340001F05B6F5837F144645EA43158DF803C083
:1033500045D00DD8062E16D005D8A6B1022E40D0E5
:103360006FF0150038E0B6F5807FF9D101260AE04C
:1033700040F20222964236D0B6F5407F35D0B6F5FF
:10338000007FEDD102260123220303FA01F12ED59D
:103390007B68C3F80815B86890BB05F01F036D097A
:1033A0002BD0012D75D13D4A02EB830284F480338A
:1033B000D2F80017C3F30043C4F3404444EA430483
:1033C00021F4E16144EA8C0421F0070144EA062378
:1033D0000B43C2F80037002007B0BDE8F083072692
:1033E000D1E70426CFE70526CDE70326CBE7630325
:1033F00044BF7B68C3F80C15CDE74FF0A042D3E77C
:103400000DF10202294605F008FE14F4403F804603
:103410000CD1B868294605F035FEB8F1000FDAD1B5
:103420009DF80210B86800F0C9FFD4E74FF000091A
:1034300001ABCDE90199CDE90439CDF80C90B8681C
:1034400003AA294605F0B5FC4845C4DB14F4003353
:1034500014D084F480349DF803308DF80E30C4F31A
:1034600000448DF80C608DF80D40B8684B4603AAF7
:10347000294605F056FD0028CFDAACE7CDE9043344
:103480000DF103030393B86803AA294605F091FCE4
:10349000F1E703F5E07350F82330FFDE000300503E
:1034A000036803F01F025B09026004D0012B03488C
:1034B00018BF002070474FF0A04070470003005035
:1034C0002DE9F04FDFF8B8B185B01546824600EB24
:1034D000810840F2FF19D04503D1002005B0BDE8B6
:1034E000F08FDAF800305804C3F3C321C3F30804A3
:1034F00000F1BD80614A4C45515C4FEA136312D024
:10350000222B1ED94E2B40F0B580C5F8144503A8D8
:103510000394FFF7C5FF039B012606FA03F3C0F8E7
:103520000835374654E0222B09D94E2B40F0A280B3
:103530004FF0FF33C5F814350AF1040ACBE74FF01A
:10354000FF34222B00F29680DFE803F012171D20D3
:103550002329209494949439639494949494949407
:103560009494667174779494947A8285888B8E0093
:10357000C5F80C45631CCAD1DEE7C5F81445621CCA
:10358000DAD00026CDE7C5F80845F3E7C5F81045C1
:10359000F5E7631CC5F80845CED0002604E0671C9B
:1035A000C5F80C45C8D0012603A80394FFF778FF9F
:1035B000039B012707FA03F3C0F80C3508E0C5F8B0
:1035C00008450029DBD1661CB6D000263746062107
:1035D000DAF80030019303F40040002803A81CBF70
:1035E000002701260394FFF75BFF039C019B00EB80
:1035F0008400C3F3412CD0F800470B0243EA8C034C
:103600003B4304EA0B04234343EA4603C0F8003774
:1036100092E7C5F80C45D4E7C5F86045601CDAF8B8
:10362000003089D0C3F30043002BBCD06FE7C5F84E
:103630006445F3E7C5F86845F0E7C5F86C45EDE784
:10364000C5F82445621C3FF477AF00270126BFE789
:10365000C5F828458EE7C5F83045F3E7C5F8344589
:10366000F0E7C5F83845EDE7C5F83C4582E76FF06F
:10367000150033E76FF0850030E700BF1CA30000A2
:10368000F0F8FCFF2DE9F041044647680D4605F0CF
:103690001FFE88B14FF02008EFF31186314688F302
:1036A0001288BFF36F8F606805F02FF850BB86F368
:1036B0001188BFF36F8FEFE71F4B1B78002BE9D00A
:1036C0004FF020086426606805F01FF870B90120EB
:1036D00005F0DCF9013EF6D10021212005F068FE5D
:1036E000F0E786F31188BFF36F8FF5E7EFF31186EC
:1036F000314688F31288BFF36F8F606805F005F8D4
:103700000028EED0BB691D706368BA691B68002091
:10371000C3F844250122C3F84825C3F82001D3F893
:103720002041C3F85801D3F858019A6081F31188F9
:10373000BFF36F8FBDE8F0817522002070B50123C3
:1037400083400E4ABFF35B8FDC4352E8001F01EA5F
:10375000040542E80056002EF7D1BFF35B8F4FF40B
:10376000803282400648C0F80823BFF35F8FBFF362
:103770006F8F0B4214BF0120002070BD041F00207A
:103780000010014070B40E49D1E90034D01AC318BA
:1037900044F1000422F07F46C1E90034A6F500138D
:1037A000B3F5400F09D2074B1B681A0A1B069C1978
:1037B000054B42F10005C3E9004570BC02F0BAB9FF
:1037C00050020020081F00205802002011B3BFF350
:1037D0005B8F0123104A834052E800CF4CEA030C70
:1037E00042E800C10029F7D1BFF35B8F0B4A4FF4C9
:1037F00080338340C2F80433094BBFF35B8F1B68EF
:10380000BFF35B8FC340DB0742BF064B4FF4003270
:10381000C3F80021704700BF041F002000100140C2
:10382000001F002000E100E00D4B1868010A0006AF
:10383000BFF35F8F0B4BD3F80435181841F100012B
:10384000B3F5801F0AD2084BD3E90023904271EBF5
:10385000030303D210F1807041F10001704700BFF3
:10386000081F002000100140580200202DE9F04FF1
:1038700085B016461F469DF840A00446FFF75EFF40
:103880000190FFF7D1FFB04271EB070354D23E4BDA
:10389000301A67EB0101984271F100014FD23B4BA6
:1038A00003EB0413D3E902239F4208BF96425ED084
:1038B00037494FF4803804F1500508FA04F8AD0098
:1038C000C1F848832046ADB204F0D1FF26F07F4B0B
:1038D00005F1804504F5A87305F58835DC464FF001
:1038E00003090293029A2CF07F4341F82230C1F879
:1038F0004483D1F80435274A6FF00200C01A6044AF
:1039000020F07F40904232D9286868B1D1F8043560
:103910000393A3EB0B0020F07F40B0F5000F26D9F6
:10392000204604F0A4FF039BBAF1000F07D109EB76
:10393000030C09F10109D5E7BAF1000F09D06FF0C6
:10394000150520460199FFF741FF284605B0BDE85F
:10395000F08F0123104ABFF35B8FA34052E8000FA2
:10396000184342E800010029F8D1BFF35B8F0749F3
:103970000E98230101EB0412C8500F9B5360C2E95B
:1039800002670025DDE700BF010080004002002043
:1039900000100140FDFF7F00001F00207FB51C4C80
:1039A0001C4BC4F80833C4F848331B4B00254FF0B8
:1039B000FF304FF0FF31C4F80855C3E902014FF45E
:1039C0008033C4F80433154B02264FF40032012132
:1039D000C4F804631120C3F880212A46FEF76AFD6B
:1039E0001120FEF737FD0E4A0123A3602360136008
:1039F0000C4B0D4A0093CDE9015500232846FFF7F3
:103A000035FF3046FFF730F9284604B070BD00BFDF
:103A10000010014003000F004002002000E100E020
:103A2000041F002085370000FFFF7F002DE9F743CA
:103A30002F4CD4F8043399070BD5D4F8043143B193
:103A40002C4A0023C4F80431D4F80431136801333C
:103A50001360D4F80433DA0329D5BFF35B8F264B08
:103A600053E8002F22F0010143E800100028F7D1AD
:103A7000BFF35B8FD30702D4D4F84031BBB100252C
:103A8000C4F84051D4F84031FFF7CEFEEFF3118275
:103A9000202383F31288BFF36F8F184BD3E902679B
:103AA000B042B94106D282F31188BFF36F8F03B0E1
:103AB000BDE8F0834FF0FF384FF0FF39C3E90289CA
:103AC000D3E900101D604FF48033C4F84833C4F8C4
:103AD0004051D4F8403182F31188BFF36F8F002931
:103AE000E5D0009032463B4628468847DFE700BFD6
:103AF00000100140081F0020001F0020400200208D
:103B000030B5431C124C85B005D08442A8BF044692
:103B1000012CB8BF0124FFF787FE0E4B0C4DD3E9F3
:103B20000013401AB0F5000F10D22218AA4228BF85
:103B30002A4652184FF0000007490091CDE90100D4
:103B400043F10003FFF792FE05B030BD2A46F0E7CF
:103B5000FFFF7F00500200208537000008B5FFF707
:103B600063FE024B1B68C01A08BD00BF5002002054
:103B700010B5084C012363601120FEF779FC064B59
:103B8000C4F80833C4F84833044B4FF40032C3F888
:103B9000802110BD0010014003000F0000E100E093
:103BA00030B50C490C4D0B680246002405EB0310A0
:103BB000D0F80808C0B218B904B10B60002007E0C3
:103BC0000133072B4FF00104F0D90B606FF01B009D
:103BD000136030BD0C1F002000E0014030B581684B
:103BE00085B0103921F00704054604F006F91022CB
:103BF0000146684604F0CBF907491022684604F0F4
:103C0000BBF910236A462146284604F0C5F800385F
:103C100018BF012005B030BD0A9C000030B50D462C
:103C2000816887B0102302AA1039044604F09FF877
:103C3000002802DA012007B030BD102202A9204678
:103C400004F082FE00283AD11E49102202A804F096
:103C50006CF900280CBF012302232B70204604F0CE
:103C60005FFE012301460DF10702204604F07FF8B4
:103C70000028DFDB9DF8073003F00F021B096A7094
:103C80002B7101220DF10701204604F05DFE10B9F1
:103C90006B78042B03D901236B7000232B71A2686E
:103CA000183A22F00702083AA91C204604F05FFEE9
:103CB0000028BFD1E91C204604F0B2FEBBE7032375
:103CC000CBE700BF0A9C0000F0B5354F460085B039
:103CD0000546694657F8260004F0A8FE044610B1D0
:103CE000FF2005B0F0BD013602A957F8260004F008
:103CF0009DFE012837D12B482A46492104F01CF8A3
:103D0000294B02938DF80C409DF800609DF80870D7
:103D1000264C00222078314604F008FE50B360782B
:103D2000394604F003FE28B3A378042B03D09DF892
:103D3000031099421ED1E378042B03D09DF80B1099
:103D4000994217D12379042B10D16279022A1DD10F
:103D5000174B18482A46492103F0EEFF6079831E6D
:103D6000022BBED9BCE70028CED0B9E79DF80210DF
:103D70009942EAD00132032A04F10604CAD10E485E
:103D80002A46492103F0D8FF0120AAE7032A05D0DB
:103D90000A4B0B49042A08BF0B46DAE7094BD8E760
:103DA000509A000055A3000003010303EAA300009A
:103DB00037A30000A0A30000C4A300003CA30000A0
:103DC0004EA3000032A300004FF08053D3F83021FF
:103DD000082A06D1D3F83431052B02D8024AD05C28
:103DE00070470020704700BF02A40000024AD2F8CA
:103DF0000034002BFBD0704700E0014010B54FF0BD
:103E00008053D3F83021082A4ED14FF08042002150
:103E1000C2F80C11C2F81011C2F8381502F5404270
:103E2000D3F80414C2F82015D3F80814C2F82415E6
:103E3000D3F80C14C2F82815D3F81014C2F82C15B6
:103E4000D3F81414C2F83015D3F81814C2F8341586
:103E5000D3F81C14C2F84015D3F82014C2F8441546
:103E6000D3F82414C2F84815D3F82814C2F84C1516
:103E7000D3F82C14C2F85015D3F83014C2F85415E6
:103E8000D3F83414C2F86015D3F83814C2F86415A6
:103E9000D3F83C14C2F86815D3F84014C2F86C1576
:103EA000D3F84434C2F87035FFF78EFF18B1414B98
:103EB000414AC3F88C26FFF787FF18B13F4BFB221E
:103EC000C3F81825FFF780FF70B14FF080414FF025
:103ED0008053D1F8E42ED3F8583222F00F0203F0C9
:103EE0000F031343C1F8E43EFFF76EFF20B1344BDC
:103EF0004FF40072C3F840264FF08053D3F83031AE
:103F0000082B09D14FF08043D3F80024D20744BFD7
:103F10006FF00102C3F800242A4AD2F8883043F433
:103F20007003C2F88830BFF34F8FBFF36F8F4FF02D
:103F30008053D3F83021082A0ED1D3F83431052B21
:103F400002D8214AD35C3BB14FF01023D3F80822AA
:103F50004FF08043C3F858254FF01023D3F80022C8
:103F6000002A03DBD3F80432002B22DA174901239D
:103F70004FF01020C1F804351224FFF737FFC0F8C6
:103F80000042FFF733FFC0F80442FFF72FFF002382
:103F9000C1F80435FFF72AFFBFF34F8F09490C4BD7
:103FA000CA6802F4E0621343CB60BFF34F8F00BFD7
:103FB000FDE710BD005000404881030000F00040C4
:103FC0000090024000ED00E0FCA3000000E0014092
:103FD0000400FA05014B1860704700BF101F002055
:103FE00010B5054B1868144604F052FD0028A4BF14
:103FF0002070002010BD00BF101F0020024A0123C6
:104000008340C2F80435704700F00140014B0020A6
:104010001B681847141F0020014B1B68184700BF7E
:10402000141F002010B50C4C237993B90123237180
:104030000A4B2060002818BF184600F05BF850B902
:1040400023680748002BBDE8104008BF184600F061
:10405000A1B86FF0770010BD141F00200D400000C4
:104060001940000008B5064B1B683BB10020FEF765
:1040700013FA18B9BDE80840FEF7ECB908BD00BF57
:10408000141F00204FF08053D3F83021082A06D1A6
:10409000D3F83431052B02D8024AD05C7047002097
:1040A000704700BF08A4000038B54FF080440123DA
:1040B000C4F8083363600023C4F80031D4F8003139
:1040C00042F21075D4F80C24D4F80C34D20307D57E
:1040D000DB0705D5012004F0D9FC013DF2D138BD44
:1040E000FFF7D0FF0028FAD0014B00225A71F6E703
:1040F0001C1F002010B508490C794CB90123086039
:104100000B71FFF7BFFF08B9002010BD4C71FBE732
:104110006FF07700F9E700BF1C1F00204FF08043CD
:104120000022C3F80021D3F80021094901221A60B6
:10413000096811B1C3F804237047D3F80021002A9D
:10414000FBD00022C3F80021D3F80031704700BF34
:104150001C1F002010B54FF08043D3F80423D20772
:1041600015D5D3F8002192B10022C3F80021012116
:10417000D3F80021C3F80813FFF784FF044B10B1F4
:104180005A7922B95971BDE810401B68184710BD13
:104190001C1F0020074A137943B9012110601171D7
:1041A0004FF080421846C2F8183570476FF077001C
:1041B000704700BF241F002010B54FF080431D4CF6
:1041C000D3F81814D3F8182411F4803F19D002F052
:1041D0000302012A03D00AB104F0C4FC00224FF00C
:1041E0008043C3F818250022C3F80421D3F8042122
:1041F00001229A60226872B9D3F80421002AFBD008
:1042000011E0D3F81424D107E8D5D3F81C24920781
:10421000E2D422681AB10222C3F8042310BDD3F8F5
:104220000421002AFBD00022C3F80421D3F8043172
:10423000F4E700BF241F0020F8B54FF08043194F6A
:10424000D3F80443012504F01A04002604B9F8BD8C
:10425000B4FA84F0C0F11F00830003F580739BB2B1
:1042600003F1804305FA00F2196824EA02040029E8
:10427000ECD01E601B684FF080430128C3F8082370
:104280000CD1D3F81824D3F81824920706D10222AF
:10429000C3F81805C3F804239860D7E73B68C0B299
:1042A0009847D3E7241F0020036803F01F025B092F
:1042B000026004D0012B034818BF002070474FF064
:1042C000A040704700030050034A430900F01F005C
:1042D000D35C1844C0B270470EA40000034611F02E
:1042E000010030B5CCB213D1A207C4F3400020D5F1
:1042F000124AD2F8200558604FF08053C2F82005CA
:10430000D3F83031082B15D0003818BF012010E049
:104310004FF0A0414FF08055D1F820251A60C1F828
:104320002025D5F83051082D08BFD1F82015002AD6
:10433000DAD030BDD2F82035E6E700BF00030050E8
:10434000F7B504460846FFF7BFFF06B204EB460682
:104350000D46B38ADB072BD5204604F007FD29461E
:10436000204604F072FC58B1204604F084FC276813
:1043700000B207EB80030022C3F81025C3F8102514
:104380002946204604F0A0FC0021B18201A8019535
:10439000FFF78AFF019B00EB8300074BD0F8002753
:1043A000134043F00203C0F80037084603B0F0BDE5
:1043B0006FF01500FAE700BFF0F8FCFF014804F0C9
:1043C00085BB00BF7401002010B504480C4604F002
:1043D0005FFB0028A4BF2070002010BD74010020E6
:1043E0002DE9F04F804689B058F804ABDAF8041391
:1043F000C9B28346082241F00041504604F08EFCC9
:10440000051E2BDA0023032106A8CDE90633FFF7AA
:1044100065FF644B01930DF118090023019A009385
:1044200012F8013B60490192DA0803F007038A5C45
:1044300022FA03F3DA071AD4009B09F10409A3B1A5
:104440004FF000410022504604F068FC032106A80A
:10445000FFF744FF0028DCD125F000450124002DA2
:1044600040F08A8009B0BDE8F08F0123D6E7009BB9
:104470004E4A13440293D9F800100029DCD0029B65
:1044800091FAA1F11C78B1FA81F141EA4414204675
:10449000FFF71AFF0BEB40000594878AC808BB089A
:1044A00019F80020039301F00701012303FA01F139
:1044B00022EA010209F8002005A8FFF7F5FE059A97
:1044C000039B02F5E072C7F3820650F822205B07D7
:1044D0003746C2F3014233D5D6B240463A4621466A
:1044E00004F0D3FB05A80594FFF7DEFE059B03F55A
:1044F000E07350F82330C3F301439E4207D10021FB
:10450000204604F093FB3146204604F08FFB05A8BB
:104510000594FFF7C9FE059B012202FA03F3C0F8D8
:1045200020354FF08053D3F83031082B01BFD0F83D
:104530002035D0F82035D0F82035D0F820359AE74E
:10454000022A0DD10321204604F070FB06F005037A
:10455000012BDCD13A462146404604F096FBD6E7D3
:1045600002212046039204F061FB032EF2D0039A4D
:10457000032ACCD1022EECE795FAA5F3B3FA83F324
:1045800004FA03F225EA020503F5A2720BEB4303DA
:104590005AF82220B3F87C10C2F30142404604F0DE
:1045A00074FB5CE71EA400005C9A00001EA40000DF
:1045B000044AD2F80034DB07FBD50160BFF35F8FFC
:1045C000704700BF00E001404FF080531A69B0FB14
:1045D000F2F302FB13036BB9084B0222C3F8042564
:1045E000C3F80805D3F80024D207FBD50020C3F890
:1045F000040570476FF00C00704700BF00E00140F9
:1046000010B5054C0123C4F80435FFF7D1FF002392
:10461000C4F8043510BD00BF00E0014070B5114D75
:104620006C6BA4B14FF47A735C430A23B4FBF3F4CC
:104630000D4ED6F800316BB995F8393053B90A20D0
:1046400004F024FA013CF4D16FF0730070BD4CF219
:104650005034EDE795F8393003F0FF00002BF5D02A
:10466000F2E700BF2C1F002000900240084B10B55D
:1046700000220124C3F80045C3F800211C6028B1C2
:10468000FFF7CCFF18B9034B83F83840002010BD6A
:10469000009002402C1F002070B500F06044B4F17F
:1046A000005F5DD184075BD1304C94F83050012D10
:1046B00005D09D4257D194F83850002D53D02C4D41
:1046C000022B0BBFC5F81025C5F80425C5F8140545
:1046D000C5F808050CBFC5F81815C5F80C154FF03E
:1046E000000684F8396026680CBF08250425BEB989
:1046F00094F838306BB11E4B05F1804505F5243533
:104700000022C3F8002101232B60BDE87040FFF7B1
:1047100085BF0120FFF7AAFF10F1740FEBD170BD28
:10472000A66826B1E0606161E2610020F7E7A2615E
:104730000F4A84F830300123A0602161C2F8006183
:10474000C2F8043394F8382002F0FF0012B9FFF7E2
:104750008DFFEAE705F1804505F524352B60E4E798
:104760006FF00C00DBE76FF00F00D8E72C1F002084
:1047700000900240084B9A685A621A699A629A69D4
:10478000DA62DA689A6032B15A691A61DA699A6152
:104790000022DA60704770472C1F002000F01F03D2
:1047A00040090FD0012810D10B4A02EB83020B4BBA
:1047B000D2F80007034043EA012343F00203C2F8A2
:1047C000003770474FF0A042EFE7002203F5E07397
:1047D00052F82330FFDE00BF00030050F0F8FCFF6A
:1047E00010B50E4B0238D3F83C26D3F838360728DC
:1047F00013D8DFE800F0110F0D0B0A080604100EA5
:10480000C871100C8871100A48710A711A0ECA70AA
:104810001A0C8A701A0A4A700B7010BD0090024080
:10482000023807281FD8DFE800F0292725112321A7
:104830001F04CB791B068A7943EA02434A7943EA8B
:1048400002230A7913430E4AC2F83C36CB781B0682
:104850008A7843EA02434A7843EA02230A781343F8
:10486000074AC2F8383670470023E4E70023E5E73B
:104870000023E6E70023EBE70023ECE70023EDE766
:10488000009002400268154BFF2A08BF4FF0FF322C
:10489000C3F824254268FF2A08BF4FF0FF32C3F84F
:1048A00028258268FF2A08BF4FF0FF32C3F8302561
:1048B000C268FF2A08BF4FF0FF32C3F834250269EF
:1048C000FF2A08BF4FF0FF32C3F838254269FF2A9C
:1048D00008BF4FF0FF32C3F83C25704700900240FC
:1048E00030B5194D0FCD8DB006AC0FC495E803005F
:1048F00084E803001549D1F82435DBB20093D1F8E0
:104900002835DBB20193D1F83035DBB20293D1F810
:104910003435DBB20393D1F83835DBB20493D1F8E8
:104920003C3506A8DBB20593FFF7ACFF0023C1F8C6
:10493000003101230B60D1F80031002BFBD0684619
:10494000FFF7A0FF0DB030BD1898000000900240A6
:1049500070B590F82930044613B190F82A204ABB6C
:104960006068FF2867D0A268FF2A64D0E268FF2A47
:1049700061D02269FF2A5ED0B3B90321FFF70EFF91
:10498000A068FFF70BFFE068FFF708FF2069FFF75B
:1049900005FF6069FF2801D0FFF700FFA069FF282D
:1049A00002D00321FFF7FAFE94F82A3013B9201D34
:1049B000FFF768FF214E636A736394F8293086F825
:1049C0003A304FF080531E4DD3F83031082B04D1CC
:1049D0000123C5F80833FFF783FF2368C5F8403586
:1049E000A37F617F227F9B0143EAC1031343E27FE0
:1049F00043EAC213C5F84435D5F8002694F82030B0
:104A000022F07F4222F0FF02134394F8212043EA70
:104A1000026394F8222043EA426394F8232043EA95
:104A20000273C5F8003633680BB9002070BD292029
:104A3000FDF710FDF9E76FF01500F7E72C1F0020D8
:104A4000009002400A4B002283F83820094B0121D4
:104A50004FF08050C3F808131961D0F830010828CE
:104A600008BF5965C3F80025C3F80021704700BF8F
:104A70002C1F00200090024038B50C4C94F83050A8
:104A800085B9C4E9001240B90020C4E9020001233D
:104A900084F8303084F8380038BDFFF759FF00281B
:104AA000F2D0F9E76FF07700F6E700BF2C1F002087
:104AB0002DE9F041DFF89C80064698F83000012887
:104AC0000F46144640D198F8383083B3204D012367
:104AD000C5F808334FF08053D3F83031082B01D19B
:104AE000FFF7FEFE1FB170783946FFF799FE0027E9
:104AF00088F83970C5F80071B37872781B0343EAFF
:104B0000022332781343F27843EA4233327943EA9C
:104B10008233727943EAC233C5F83436FFF77EFD3B
:104B2000743008D0C5F800714CB9002005E0FFF7DB
:104B30009DFD7430CAD16FF07300BDE8F0817078CC
:104B40002146FFF74DFEF0E76FF00F00F5E700BFDD
:104B5000009002402C1F0020044B93F838300BB912
:104B6000FFF784BD6FF07700704700BF2C1F002057
:104B700008B5064B93F83030012B03D1FFF762FFE5
:104B8000002008BD6FF00F00FBE700BF2C1F0020C6
:104B9000034B93F83000003818BF0120704700BF66
:104BA0002C1F002038B511F0030539D11F4B1A68AE
:104BB000D2B193F83040012C35D11D4AC2F81C15F2
:104BC0000421C2F8200583F8395083F83010C2F868
:104BD0000051C2F8044393F8383003F0FF00EBB9FA
:104BE000FFF744FD002018E0114CC4F81C15C4F870
:104BF000200583F8392093F8383043B10023C4F8F6
:104C000000310123E360BDE83840FFF707BD012014
:104C1000FFF72CFD10F1740FF0D138BDD460E1E73F
:104C20006FF00C00F9E76FF00F00F6E72C1F002083
:104C30000090024010B5224BD3F8002192B1214CD4
:104C40000022C3F8002194F8381094F8302071B98C
:104C50000121032A84F8381005D0042A05D0022A3D
:104C600000D1996010BD5960FCE7D960FAE7032ACA
:104C700019D0042A19D0022A04D1012384F8203043
:104C8000FFF778FDA36813B9012384F8303094F856
:104C9000393003F0FF0013B9D4E9003198470023FD
:104CA00084F82030DEE70223E8E7032284F820209E
:104CB000D3F81C256262D3F8203584F82830E1E768
:104CC000009002402C1F002038B5EFF311852023FF
:104CD00083F31288BFF36F8F064B9C6804F070FA61
:104CE00085F31188BFF36F8F2046BDE83840FDF78C
:104CF00041BB00BF681F002038B50A4B53F8204065
:104D0000013053F82050A54200D838BD606830B15A
:104D1000037EDB0701D404F028FA0834F3E72368A4
:104D20009847FAE7609A000070B52A4B2A4C2B4D41
:104D3000012286B003201A70FFF7DEFF04F09CFB0F
:104D40000420FFF7D9FF2646AE4204F1300410D309
:104D500000F016FC204C224EAC4226D300F024FC7E
:104D6000FBF738FB1F4A137B23F00103137306B0D4
:104D700070BD54F80C3C059354F8103C049354F85F
:104D8000143C039354F8183C029354F81C3C0193D0
:104D900054F8203C009354E90A2354E90C0100F034
:104DA00021FA54F8303C5E65CDE7D4E90A23B3F12B
:104DB000FF3F08BFB2F1FF3F05D052EA0301206870
:104DC00003D100F0ADFC3034C6E73146183000F0B6
:104DD00021FEF8E775220020749700007497000008
:104DE000A99300002003002070B5154E154D1649FB
:104DF000C02386B003FB006601220023CDE9042313
:104E00000F22CDE902320193182303FB005504461B
:104E100001EB40210D4B00954FF4C072304600F07D
:104E2000E1F9737B0A4AEE6023F0040373734FF4D5
:104E3000086304FB033313442C746B6006B070BD2D
:104E400060020020681F0020002B002085920000D7
:104E500080220020BFB50020FFF74EFF284B83F3D0
:104E60000888284C284F636943F400736361002568
:104E7000E02384F82230E57725766576A57684F8F8
:104E80002050636A43F4E023636284F82350FDF703
:104E9000EDF9FDF705FC4FF0FF33A362E362FDF788
:104EA000CBFCFDF721FC1948194C00F0D9F9012081
:104EB000FFF722FF0220FFF71FFF00F0A9FB154BB1
:104EC00015499C61154B05930123CDE903534FF41C
:104ED00080423B46CDE901550095204600F082F91D
:104EE000627B064622F004022046627304F030FA28
:104EF0002846FFF779FF3A4631462046FDF7AAFBE0
:104F0000002B002000ED00E0294D0000E003002010
:104F100020030020681F0020002D002020A4000096
:104F200038B5064C064D0020AC4200D338BD2046B3
:104F300004F049F90028F9DB1C34F5E7F001002002
:104F4000F001002073B50C46EFF31181202585F3A5
:104F50001288BFF36F8FC5685DB125602B68C36091
:104F6000836901338361002081F31188BFF36F8F60
:104F700011E052EA030603D125606FF00B00F3E75E
:104F8000CDE900230246083000F040FA18B9034B7F
:104F90009B681B69236002B070BD00BF681F0020C2
:104FA0002DE9F341044617461E46EFF311882023EE
:104FB00083F31288BFF36F8FC368334A7BB1806875
:104FC0009168884219D057EA060318D188F31188EE
:104FD000BFF36F8F6FF00F0002B0BDE8F0819168F2
:104FE00091F90E1021610133E3609368A36088F3A7
:104FF0001188BFF36F8F0020EEE72169F2E791F986
:105000000E1090F90E309942A8BF19466FF07E023B
:105010009142B8BF11468B422DDD04F03EF90546A2
:10502000CDE9007619482246414600F0EFF9002804
:10503000E1D0EFF31186202383F31288BFF36F8F43
:10504000A068D0B1236821699C420AD04BB193F982
:105050000E309942A8BF19466FF07E039942B8BF3F
:10506000194604F01AF940B10848314600F062FAD6
:105070006FF00A00B0E70025D2E7002DF4D186F3E7
:105080001188BFF36F8FF3E7681F0020762200209E
:10509000F8B583680546002B3FD0234A92689342B7
:1050A0003ED1C368012B03D9013BC3600020F8BD8A
:1050B000EFF31187202383F31288BFF36F8F016909
:1050C000806804F0EAF82C68AC4207D10023C5E9F7
:1050D000023387F31188BFF36F8FE7E7002CF5D019
:1050E000D4E9003213605A60637B002623F0020388
:1050F0006373C4E90066A66004F1180004F090F937
:10510000AC6094F90E302B612046A66704F020F9BC
:105110000648394600F00EFAC8E76FF01500C6E7FA
:105120004FF0FF30C3E700BF681F00207622002049
:1051300070B5EFF31186202383F31288BFF36F8FCE
:105140000468A0421AD0CCB1D4E9003213605A608E
:10515000637B002523F002036373C4E90055A56057
:1051600004F1180004F05CF92046A56704F0F0F89B
:1051700031460848BDE8704000F0DCB9D0E90232A1
:105180009A4218BF0133836086F31188BFF36F8F93
:1051900070BD00BF7622002013B5EFF311812024EB
:1051A00084F31288BFF36F8F846844B1013C84603C
:1051B00081F31188BFF36F8F002002B010BD52EA57
:1051C000030406D181F31188BFF36F8F6FF00F00D6
:1051D000F3E7CDE900230246014800F017F9ECE7B8
:1051E00076220020F0B5073285B022F0070204468F
:1051F000FF320E9D0D9E2573583022F07F02C4E9C8
:105200001600042500207F2AA673C4E90600A060CA
:105210006573E07301F18007A2F1800605D880F381
:105220001188BFF36F8F284602DFC4E919768D1805
:1052300000260C9AE66602920B9A01920A9A009254
:1052400020462A46FDF782F9044B66659B6803B148
:105250001B6F2367284605B0F0BD00BF681F002004
:1052600040F2011383810023C0E919330367014B26
:1052700098607047681F0020094A93686FF00A0120
:105280009967084958674B6843F080534B60002387
:1052900083F31188BFF36F8F9368986F704700BFD7
:1052A000681F002000ED00E070B590F90D20437BF1
:1052B000002A36DBD90634D11B4C63F07F0322462B
:1052C000437352F81C3F216A934207D1C0E9002181
:1052D0000860206211E09942F8D01B68002BF5D0DD
:1052E00090F90E5093F90E60B542F4D0AE42F2DD63
:1052F0005968C0E9003108605860E569954200D0FE
:1053000005B9E568A3685A7BD20604D1DA897F2AF9
:1053100001D9AA6932B1AB4202D0284600F0FAFAAC
:10532000A56170BDA361FCE7681F002038B590F946
:105330000D20437B002A014604DA03F07F03437308
:1053400003F0CCFF0D4D2A46AB6852F81C4F944237
:1053500000D004B9EC688B4207D05A7BD20604D146
:10536000DA897F2A01D9A2692AB1A34202D0204654
:1053700000F0D0FA2346AB6138BD00BF681F0020A3
:10538000B3F1FF3F08BFB2F1FF3F03D0024918302D
:1053900000F040BB704700BFA993000038B5194C1E
:1053A000A168206A0B68814214BF1A46002249682E
:1053B0000B605960A368216A2AB9134AC3E9002126
:1053C0000B6023620CE093F90E0092F90E50A84294
:1053D00014D0854212DD5168C3E900210B6053608F
:1053E000E569094B9D4200D005B9E568A3689D4277
:1053F00002D0284600F08EFAA56138BD9142DCD07B
:105400001268D9E7681F0020841F0020F8B50E4BF2
:105410000C4611460D4A98681060DDE90667EFF307
:105420001182202282F31288BFF36F8F9D68284675
:1054300003F066FF284632463B46FFF7A1FF2046B1
:10544000BDE8F840FFF718BF681F00208C1F002040
:10545000F8B50446EFF31187202383F31288BFF3D6
:105460006F8F437B03F01F02002A0CBF012600262A
:1054700049B239D103F07F03437303F02FFF2C4D62
:10548000437B817363F07F032A46437352F81C3FCA
:10549000934227D1286AC4E9002004602C620FE0FF
:1054A0009842F8D01B68002BF5D093F90EC06145E7
:1054B000F6D08C45F4DD5968C4E900310C605C60BD
:1054C000EC69944200D004B9EC68AB689C4202D00D
:1054D000204600F01FFAAC6187F31188BFF36F8F8D
:1054E0003046F8BD286ADEE79B071ED5856803F0C5
:1054F000F5FE81732B689D4209D16B68C4E90053A6
:105500001C606C60E8E76A689342F6D01B68002B69
:10551000F3D093F90E209142F5D08A42F3DD5A6818
:10552000C4E9003214605C60D6E78173D4E700BF41
:10553000681F002049B9EFF3058030B9054B9A691F
:105540009B689A4201D0FFF797BE81F31188BFF3A1
:105550006F8F7047681F0020034648B9EFF305823C
:1055600032B9064A91699268914201D0FFF784BE30
:1055700083F31188BFF36F8F704700BF681F00204F
:10558000EFF31181202383F31288BFF36F8F054B54
:105590009A68D37B013BD37381F31188BFF36F8F7C
:1055A000704700BF681F002070B5EFF311862023FD
:1055B00083F31288BFF36F8F144DAB68DA7B01322F
:1055C000DA732A4652F81C4F944200D004B9EC68B2
:1055D0005A7BD20604D1DA897F2A01D9A2692AB17D
:1055E000A34202D0204600F095F92346AB6186F332
:1055F0001188BFF36F8FEFF31180202383F312889C
:10560000BFF36F8FBDE87040FFF7A6BF681F002093
:10561000024B03F11C02C3E907227047681F0020F8
:1056200070B5EFF31186202383F31288BFF36F8FD9
:105630001B4CA168206A0B68814214BF1A460022E5
:1056400049680B605960A368216A2AB9154AC3E901
:1056500000210B6023620CE093F90E0092F90E50CA
:10566000A84218D0854216DD5168C3E900210B60BD
:105670005360E5690B4B9D4200D005B9E568A3680E
:105680009D4202D0284600F045F9A5613046BDE8AC
:105690007040FFF7F1BD8A42D8D01268D5E700BF4D
:1056A000681F0020841F0020F8B550EA0103064659
:1056B0000C4603D1FFF7B4FF0020F8BDEFF31187CC
:1056C000202383F31288BFF36F8F124D124BA8680B
:1056D0001860FFF72BFEA8681049234632461830A1
:1056E00000F098F9AA68537B43F00403537304460F
:1056F0003846FFF7C1FDAB68D3E90A23B3F1004F89
:1057000008BF002AD8D103F0B3FE201A20EAE070C7
:10571000D3E700BF681F00208C1F0020A993000062
:1057200038B50446EFF31185202383F31288BFF3C5
:105730006F8F437B5B070FD5183003F071FE637BDF
:1057400023F0040320466373FFF7AEFD29460548A6
:10575000BDE83840FFF7EEBE85F31188BFF36F8FC9
:1057600038BD00BF76220020014B9868704700BF0B
:10577000681F00202DE9F8430446077BEFF31185ED
:10578000202383F31288BFF36F8F437B190705D55E
:1057900085F31188BFF36F8FBDE8F883D90943F013
:1057A00008025DD14273A36813B1204603F09EFD49
:1057B00004F1180003F034FEA66D04F15808B0455A
:1057C00011D04FF0000976B1304603F08FFD06F19D
:1057D000180003F025FEC6F878903046FFF764FD08
:1057E000A66DB045EFD1DFF8C880D8F808309C42EC
:1057F0003ED1EFF30589B9F1000918BF4FF0010957
:10580000D8F81C60284A964200D00EB9D8F80C602F
:10581000B34202D0304600F07DF82046C8F8186048
:1058200002F047FBB9F1000F02D02048FFF718FD46
:10583000D8F808309C4231D1EFF3058373BB227B4B
:10584000D20718D42846FFF717FDFB07A4D500237D
:1058500083F31188BFF36F8F0423184602DF9BE7A1
:1058600003F07F0343F00803437303F037FD9AE727
:105870004FF00009C4E785F31188BFF36F8F83F3FE
:105880001188BFF36F8F0423184602DFEFF31180F6
:10589000202383F31288BFF36F8FD4E785F3118839
:1058A000BFF36F8FD1E700BF841F0020E00300200B
:1058B000681F0020427B12F01F02034610D10A49E4
:1058C00088420DD00949086868B1D9897F2909D86B
:1058D00093F90E20064B1B689A42B8BF0020704710
:1058E00000207047104670476002002078010020B9
:1058F000901F0020044BC01A044BC0105843044BA7
:1059000001221A54704700BFA0040020ABAAAAAA23
:105910007622002070B50D4B0D4D1E7CFFF7CAFF9F
:1059200006EB460305EBC3050446284603F078FD65
:10593000084B00229A553CB1621E28460649BDE834
:105940007040D31700F066B870BD00BF681F00201C
:10595000A004002076220020F558000038B5EFF3AF
:105960001185202383F31288BFF36F8F0F4B104AEA
:105970009C681068A04206D1FFF7CCFF85F3118820
:10598000BFF36F8F38BD00211B7C1160094AD35CC7
:10599000002BF3D02046FFF78DFF0028EED0637B6D
:1059A000DB0601D1FFF7FAFC2046E5E7681F00207F
:1059B0008C1F002076220020024B1868984208BFF6
:1059C000002070477C010020034B1B680BB9FEF7D9
:1059D000C5B80020704700BF941F002030B570B1DB
:1059E0000B4B5B6898420AD0036843B1D3E90421AA
:1059F000D0E90445121941EB0501C3E90421D0E9BE
:105A0000003213605A600023C0E9003330BD00BF8C
:105A10007C010020B3F1FF3F08BFB2F1FF3F2DE949
:105A2000F84F0446994615461F467AD08160EFF339
:105A30001188202383F31288BFF36F8FB9F1000F11
:105A4000DFF8E8A020DBFFF7BFFFDAE90027013528
:105A500049F100092D1849EBE073C4E90453AD186E
:105A6000064643EB07074FF00109FFF7A5FFDFF8F4
:105A7000C0E0DEF804A00346EBB9C4E900EACAF8C6
:105A80000040CEF8044028E0DAE900126FF001038C
:105A90005B1A4FF0FF3161EB02025B1B62EB090204
:105AA000012B72F10001BCBF01230022C0E90432C6
:105AB0004FF00009D9E7D3E9041CD4E904208A4255
:105AC00070EB0C0B24DA891A5A686CEB0000C3E9FE
:105AD0000410C4E9003214605C60FFF76DFF84427B
